{
  "contractName": "EShop",
  "abi": [
    {
      "inputs": [],
      "stateMutability": "nonpayable",
      "type": "constructor"
    },
    {
      "inputs": [
        {
          "internalType": "address",
          "name": "",
          "type": "address"
        }
      ],
      "name": "Users",
      "outputs": [
        {
          "internalType": "address",
          "name": "_address",
          "type": "address"
        },
        {
          "internalType": "string",
          "name": "name",
          "type": "string"
        },
        {
          "internalType": "enum EShop.Groups",
          "name": "group",
          "type": "uint8"
        }
      ],
      "stateMutability": "view",
      "type": "function",
      "constant": true
    },
    {
      "inputs": [],
      "name": "gameCount",
      "outputs": [
        {
          "internalType": "uint256",
          "name": "",
          "type": "uint256"
        }
      ],
      "stateMutability": "view",
      "type": "function",
      "constant": true
    },
    {
      "inputs": [
        {
          "internalType": "uint256",
          "name": "",
          "type": "uint256"
        }
      ],
      "name": "games",
      "outputs": [
        {
          "internalType": "address payable",
          "name": "seller",
          "type": "address"
        },
        {
          "internalType": "string",
          "name": "name",
          "type": "string"
        },
        {
          "internalType": "string",
          "name": "short_desc",
          "type": "string"
        },
        {
          "internalType": "uint256",
          "name": "price",
          "type": "uint256"
        },
        {
          "internalType": "uint256",
          "name": "releaseYear",
          "type": "uint256"
        },
        {
          "internalType": "uint256",
          "name": "soldCopies",
          "type": "uint256"
        },
        {
          "internalType": "bool",
          "name": "state",
          "type": "bool"
        }
      ],
      "stateMutability": "view",
      "type": "function",
      "constant": true
    },
    {
      "inputs": [],
      "name": "totalSoldCopies",
      "outputs": [
        {
          "internalType": "uint256",
          "name": "",
          "type": "uint256"
        }
      ],
      "stateMutability": "view",
      "type": "function",
      "constant": true
    },
    {
      "inputs": [
        {
          "internalType": "string",
          "name": "_name",
          "type": "string"
        },
        {
          "internalType": "string",
          "name": "_sh_desc",
          "type": "string"
        },
        {
          "internalType": "uint256",
          "name": "_price",
          "type": "uint256"
        },
        {
          "internalType": "uint256",
          "name": "_year",
          "type": "uint256"
        },
        {
          "internalType": "bool",
          "name": "_state",
          "type": "bool"
        }
      ],
      "name": "CreateGame",
      "outputs": [],
      "stateMutability": "nonpayable",
      "type": "function"
    }
  ],
  "bytecode": "0x608060405234801561001057600080fd5b5060405180606001604052803373ffffffffffffffffffffffffffffffffffffffff1681526020016040518060400160405280600981526020017f41726d6973313333370000000000000000000000000000000000000000000000815250815260200160028081111561007f57fe5b815250600360003373ffffffffffffffffffffffffffffffffffffffff1673ffffffffffffffffffffffffffffffffffffffff16815260200190815260200160002060008201518160000160006101000a81548173ffffffffffffffffffffffffffffffffffffffff021916908373ffffffffffffffffffffffffffffffffffffffff1602179055506020820151816001019080519060200190610124929190610156565b5060408201518160020160006101000a81548160ff0219169083600281111561014957fe5b02179055509050506101fb565b828054600181600116156101000203166002900490600052602060002090601f016020900481019282601f1061019757805160ff19168380011785556101c5565b828001600101855582156101c5579182015b828111156101c45782518255916020019190600101906101a9565b5b5090506101d291906101d6565b5090565b6101f891905b808211156101f45760008160009055506001016101dc565b5090565b90565b610a218061020a6000396000f3fe608060405234801561001057600080fd5b50600436106100575760003560e01c8063117a5b901461005c5780634d1975b4146101c25780636853aea5146101e057806399b956a014610352578063aa6f880e14610457575b600080fd5b6100886004803603602081101561007257600080fd5b8101908080359060200190929190505050610475565b604051808873ffffffffffffffffffffffffffffffffffffffff1673ffffffffffffffffffffffffffffffffffffffff168152602001806020018060200187815260200186815260200185815260200184151515158152602001838103835289818151815260200191508051906020019080838360005b8381101561011a5780820151818401526020810190506100ff565b50505050905090810190601f1680156101475780820380516001836020036101000a031916815260200191505b50838103825288818151815260200191508051906020019080838360005b83811015610180578082015181840152602081019050610165565b50505050905090810190601f1680156101ad5780820380516001836020036101000a031916815260200191505b50995050505050505050505060405180910390f35b6101ca610621565b6040518082815260200191505060405180910390f35b610350600480360360a08110156101f657600080fd5b810190808035906020019064010000000081111561021357600080fd5b82018360208201111561022557600080fd5b8035906020019184600183028401116401000000008311171561024757600080fd5b91908080601f016020809104026020016040519081016040528093929190818152602001838380828437600081840152601f19601f820116905080830192505050505050509192919290803590602001906401000000008111156102aa57600080fd5b8201836020820111156102bc57600080fd5b803590602001918460018302840111640100000000831117156102de57600080fd5b91908080601f016020809104026020016040519081016040528093929190818152602001838380828437600081840152601f19601f8201169050808301925050505050505091929192908035906020019092919080359060200190929190803515159060200190929190505050610627565b005b6103946004803603602081101561036857600080fd5b81019080803573ffffffffffffffffffffffffffffffffffffffff169060200190929190505050610851565b604051808473ffffffffffffffffffffffffffffffffffffffff1673ffffffffffffffffffffffffffffffffffffffff168152602001806020018360028111156103da57fe5b60ff168152602001828103825284818151815260200191508051906020019080838360005b8381101561041a5780820151818401526020810190506103ff565b50505050905090810190601f1680156104475780820380516001836020036101000a031916815260200191505b5094505050505060405180910390f35b61045f610940565b6040518082815260200191505060405180910390f35b6002818154811061048257fe5b90600052602060002090600702016000915090508060000160009054906101000a900473ffffffffffffffffffffffffffffffffffffffff1690806001018054600181600116156101000203166002900480601f0160208091040260200160405190810160405280929190818152602001828054600181600116156101000203166002900480156105545780601f1061052957610100808354040283529160200191610554565b820191906000526020600020905b81548152906001019060200180831161053757829003601f168201915b505050505090806002018054600181600116156101000203166002900480601f0160208091040260200160405190810160405280929190818152602001828054600181600116156101000203166002900480156105f25780601f106105c7576101008083540402835291602001916105f2565b820191906000526020600020905b8154815290600101906020018083116105d557829003601f168201915b5050505050908060030154908060040154908060050154908060060160009054906101000a900460ff16905087565b60005481565b60028081111561063357fe5b600360003373ffffffffffffffffffffffffffffffffffffffff1673ffffffffffffffffffffffffffffffffffffffff16815260200190815260200160002060020160009054906101000a900460ff16600281111561068e57fe5b14610701576040517f08c379a00000000000000000000000000000000000000000000000000000000081526004018080602001828103825260168152602001807f6f6e6c792061646d696e2063616e20646f20746869730000000000000000000081525060200191505060405180910390fd5b60026040518060e001604052803373ffffffffffffffffffffffffffffffffffffffff16815260200187815260200186815260200185815260200184815260200160008152602001831515815250908060018154018082558091505060019003906000526020600020906007020160009091909190915060008201518160000160006101000a81548173ffffffffffffffffffffffffffffffffffffffff021916908373ffffffffffffffffffffffffffffffffffffffff16021790555060208201518160010190805190602001906107db929190610946565b5060408201518160020190805190602001906107f8929190610946565b50606082015181600301556080820151816004015560a0820151816005015560c08201518160060160006101000a81548160ff021916908315150217905550505060008081548092919060010191905055505050505050565b60036020528060005260406000206000915090508060000160009054906101000a900473ffffffffffffffffffffffffffffffffffffffff1690806001018054600181600116156101000203166002900480601f0160208091040260200160405190810160405280929190818152602001828054600181600116156101000203166002900480156109235780601f106108f857610100808354040283529160200191610923565b820191906000526020600020905b81548152906001019060200180831161090657829003601f168201915b5050505050908060020160009054906101000a900460ff16905083565b60015481565b828054600181600116156101000203166002900490600052602060002090601f016020900481019282601f1061098757805160ff19168380011785556109b5565b828001600101855582156109b5579182015b828111156109b4578251825591602001919060010190610999565b5b5090506109c291906109c6565b5090565b6109e891905b808211156109e45760008160009055506001016109cc565b5090565b9056fea2646970667358221220b2d90cc3d780cd7f57d450952f29f4ae3e276a9492847a8532b3777a28f9199164736f6c63430006040033",
  "source": "pragma solidity ^0.6;\n\ncontract EShop {\n    \n    uint256 public gameCount; // skirtingi esantys zaidimai shope \n    uint256 public totalSoldCopies; // parduotu kopiju skaicius\n    \n    struct Game {\n        address payable seller;\n        string name;\n        string short_desc;\n        uint256 price;\n        uint256 releaseYear;\n        uint256 soldCopies;\n        bool state; //0(false) - not for sale; 1(true) - for sale\n    }\n    \n    Game[] public games; // parduodami zaidimai\n    \n    struct User {\n        address _address;\n        string name;\n        Groups group;\n    }\n    \n    enum Groups { Normal, Seller, Admin }\n    \n    mapping (address => User) public Users;\n    \n    constructor() public {\n        Users[msg.sender] = User(msg.sender, \"Armis1337\", Groups.Admin);\n        /*games.push(Game(\n            {\n                seller: msg.sender,\n                name: \"gta 500\",\n                short_desc: \"gta500\",\n                price: 1337,\n                releaseYear: 1998,\n                soldCopies: 0,\n                state: true\n            }\n        ));\n        gameCount++;*/\n    }\n    \n    modifier onlyAdmin() {\n        require(Users[msg.sender].group == Groups.Admin, \"only admin can do this\");\n        _;\n    }\n    \n    function CreateGame(string memory _name, string memory _sh_desc, uint256 _price, uint256 _year, bool _state)\n        public\n        onlyAdmin\n    {\n        games.push(Game(\n            {\n                seller: msg.sender, \n                name: _name, \n                short_desc: _sh_desc, \n                price: _price,\n                releaseYear: _year,\n                soldCopies: 0,\n                state: _state\n            }));\n        gameCount ++;\n    }\n    \n}",
  "sourcePath": "/home/armis/Desktop/projects/ethereum-e-shop/contracts/EShop.sol",
  "compiler": {
    "name": "solc",
    "version": "0.6.4+commit.1dca32f3.Emscripten.clang"
  },
  "schemaVersion": "3.0.23",
  "updatedAt": "2020-03-11T18:58:06.011Z",
  "networkType": "ethereum",
  "devdoc": {
    "methods": {}
  },
  "userdoc": {
    "methods": {}
  }
}